{
  "_format": "hh-sol-artifact-1",
  "contractName": "NFTMarketPlace",
  "sourceName": "contracts/NFT_MarketPlace.sol",
  "abi": [
    {
      "inputs": [],
      "stateMutability": "nonpayable",
      "type": "constructor"
    },
    {
      "anonymous": false,
      "inputs": [
        {
          "indexed": true,
          "internalType": "address",
          "name": "owner",
          "type": "address"
        },
        {
          "indexed": true,
          "internalType": "address",
          "name": "approved",
          "type": "address"
        },
        {
          "indexed": true,
          "internalType": "uint256",
          "name": "tokenId",
          "type": "uint256"
        }
      ],
      "name": "Approval",
      "type": "event"
    },
    {
      "anonymous": false,
      "inputs": [
        {
          "indexed": true,
          "internalType": "address",
          "name": "owner",
          "type": "address"
        },
        {
          "indexed": true,
          "internalType": "address",
          "name": "operator",
          "type": "address"
        },
        {
          "indexed": false,
          "internalType": "bool",
          "name": "approved",
          "type": "bool"
        }
      ],
      "name": "ApprovalForAll",
      "type": "event"
    },
    {
      "anonymous": false,
      "inputs": [
        {
          "indexed": true,
          "internalType": "address",
          "name": "from",
          "type": "address"
        },
        {
          "indexed": true,
          "internalType": "address",
          "name": "to",
          "type": "address"
        },
        {
          "indexed": true,
          "internalType": "uint256",
          "name": "tokenId",
          "type": "uint256"
        }
      ],
      "name": "Transfer",
      "type": "event"
    },
    {
      "anonymous": false,
      "inputs": [
        {
          "indexed": true,
          "internalType": "uint256",
          "name": "tokenId",
          "type": "uint256"
        },
        {
          "indexed": false,
          "internalType": "address",
          "name": "owner",
          "type": "address"
        },
        {
          "indexed": false,
          "internalType": "address",
          "name": "seller",
          "type": "address"
        },
        {
          "indexed": false,
          "internalType": "uint256",
          "name": "price",
          "type": "uint256"
        },
        {
          "indexed": false,
          "internalType": "bool",
          "name": "sold",
          "type": "bool"
        }
      ],
      "name": "idMarketItemCreated",
      "type": "event"
    },
    {
      "inputs": [
        {
          "internalType": "address",
          "name": "to",
          "type": "address"
        },
        {
          "internalType": "uint256",
          "name": "tokenId",
          "type": "uint256"
        }
      ],
      "name": "approve",
      "outputs": [],
      "stateMutability": "nonpayable",
      "type": "function"
    },
    {
      "inputs": [
        {
          "internalType": "address",
          "name": "owner",
          "type": "address"
        }
      ],
      "name": "balanceOf",
      "outputs": [
        {
          "internalType": "uint256",
          "name": "",
          "type": "uint256"
        }
      ],
      "stateMutability": "view",
      "type": "function"
    },
    {
      "inputs": [
        {
          "internalType": "uint256",
          "name": "tokenId",
          "type": "uint256"
        }
      ],
      "name": "createMarketSale",
      "outputs": [],
      "stateMutability": "payable",
      "type": "function"
    },
    {
      "inputs": [
        {
          "internalType": "string",
          "name": "tokenURI",
          "type": "string"
        },
        {
          "internalType": "uint256",
          "name": "price",
          "type": "uint256"
        }
      ],
      "name": "createToken",
      "outputs": [
        {
          "internalType": "uint256",
          "name": "",
          "type": "uint256"
        }
      ],
      "stateMutability": "payable",
      "type": "function"
    },
    {
      "inputs": [],
      "name": "fetchMarketItem",
      "outputs": [
        {
          "components": [
            {
              "internalType": "uint256",
              "name": "tokenId",
              "type": "uint256"
            },
            {
              "internalType": "address payable",
              "name": "owner",
              "type": "address"
            },
            {
              "internalType": "address payable",
              "name": "seller",
              "type": "address"
            },
            {
              "internalType": "uint256",
              "name": "price",
              "type": "uint256"
            },
            {
              "internalType": "bool",
              "name": "sold",
              "type": "bool"
            }
          ],
          "internalType": "struct NFTMarketPlace.MarketItem[]",
          "name": "",
          "type": "tuple[]"
        }
      ],
      "stateMutability": "view",
      "type": "function"
    },
    {
      "inputs": [],
      "name": "fetchMyNFT",
      "outputs": [
        {
          "components": [
            {
              "internalType": "uint256",
              "name": "tokenId",
              "type": "uint256"
            },
            {
              "internalType": "address payable",
              "name": "owner",
              "type": "address"
            },
            {
              "internalType": "address payable",
              "name": "seller",
              "type": "address"
            },
            {
              "internalType": "uint256",
              "name": "price",
              "type": "uint256"
            },
            {
              "internalType": "bool",
              "name": "sold",
              "type": "bool"
            }
          ],
          "internalType": "struct NFTMarketPlace.MarketItem[]",
          "name": "",
          "type": "tuple[]"
        }
      ],
      "stateMutability": "view",
      "type": "function"
    },
    {
      "inputs": [],
      "name": "fetctItemsListed",
      "outputs": [
        {
          "components": [
            {
              "internalType": "uint256",
              "name": "tokenId",
              "type": "uint256"
            },
            {
              "internalType": "address payable",
              "name": "owner",
              "type": "address"
            },
            {
              "internalType": "address payable",
              "name": "seller",
              "type": "address"
            },
            {
              "internalType": "uint256",
              "name": "price",
              "type": "uint256"
            },
            {
              "internalType": "bool",
              "name": "sold",
              "type": "bool"
            }
          ],
          "internalType": "struct NFTMarketPlace.MarketItem[]",
          "name": "",
          "type": "tuple[]"
        }
      ],
      "stateMutability": "view",
      "type": "function"
    },
    {
      "inputs": [
        {
          "internalType": "uint256",
          "name": "tokenId",
          "type": "uint256"
        }
      ],
      "name": "getApproved",
      "outputs": [
        {
          "internalType": "address",
          "name": "",
          "type": "address"
        }
      ],
      "stateMutability": "view",
      "type": "function"
    },
    {
      "inputs": [],
      "name": "getListingPrice",
      "outputs": [
        {
          "internalType": "uint256",
          "name": "",
          "type": "uint256"
        }
      ],
      "stateMutability": "view",
      "type": "function"
    },
    {
      "inputs": [
        {
          "internalType": "address",
          "name": "owner",
          "type": "address"
        },
        {
          "internalType": "address",
          "name": "operator",
          "type": "address"
        }
      ],
      "name": "isApprovedForAll",
      "outputs": [
        {
          "internalType": "bool",
          "name": "",
          "type": "bool"
        }
      ],
      "stateMutability": "view",
      "type": "function"
    },
    {
      "inputs": [],
      "name": "listingPrice",
      "outputs": [
        {
          "internalType": "uint256",
          "name": "",
          "type": "uint256"
        }
      ],
      "stateMutability": "view",
      "type": "function"
    },
    {
      "inputs": [],
      "name": "name",
      "outputs": [
        {
          "internalType": "string",
          "name": "",
          "type": "string"
        }
      ],
      "stateMutability": "view",
      "type": "function"
    },
    {
      "inputs": [
        {
          "internalType": "uint256",
          "name": "tokenId",
          "type": "uint256"
        }
      ],
      "name": "ownerOf",
      "outputs": [
        {
          "internalType": "address",
          "name": "",
          "type": "address"
        }
      ],
      "stateMutability": "view",
      "type": "function"
    },
    {
      "inputs": [
        {
          "internalType": "uint256",
          "name": "tokenId",
          "type": "uint256"
        },
        {
          "internalType": "uint256",
          "name": "price",
          "type": "uint256"
        }
      ],
      "name": "resaleToken",
      "outputs": [],
      "stateMutability": "payable",
      "type": "function"
    },
    {
      "inputs": [
        {
          "internalType": "address",
          "name": "from",
          "type": "address"
        },
        {
          "internalType": "address",
          "name": "to",
          "type": "address"
        },
        {
          "internalType": "uint256",
          "name": "tokenId",
          "type": "uint256"
        }
      ],
      "name": "safeTransferFrom",
      "outputs": [],
      "stateMutability": "nonpayable",
      "type": "function"
    },
    {
      "inputs": [
        {
          "internalType": "address",
          "name": "from",
          "type": "address"
        },
        {
          "internalType": "address",
          "name": "to",
          "type": "address"
        },
        {
          "internalType": "uint256",
          "name": "tokenId",
          "type": "uint256"
        },
        {
          "internalType": "bytes",
          "name": "data",
          "type": "bytes"
        }
      ],
      "name": "safeTransferFrom",
      "outputs": [],
      "stateMutability": "nonpayable",
      "type": "function"
    },
    {
      "inputs": [
        {
          "internalType": "address",
          "name": "operator",
          "type": "address"
        },
        {
          "internalType": "bool",
          "name": "approved",
          "type": "bool"
        }
      ],
      "name": "setApprovalForAll",
      "outputs": [],
      "stateMutability": "nonpayable",
      "type": "function"
    },
    {
      "inputs": [
        {
          "internalType": "bytes4",
          "name": "interfaceId",
          "type": "bytes4"
        }
      ],
      "name": "supportsInterface",
      "outputs": [
        {
          "internalType": "bool",
          "name": "",
          "type": "bool"
        }
      ],
      "stateMutability": "view",
      "type": "function"
    },
    {
      "inputs": [],
      "name": "symbol",
      "outputs": [
        {
          "internalType": "string",
          "name": "",
          "type": "string"
        }
      ],
      "stateMutability": "view",
      "type": "function"
    },
    {
      "inputs": [
        {
          "internalType": "uint256",
          "name": "tokenId",
          "type": "uint256"
        }
      ],
      "name": "tokenURI",
      "outputs": [
        {
          "internalType": "string",
          "name": "",
          "type": "string"
        }
      ],
      "stateMutability": "view",
      "type": "function"
    },
    {
      "inputs": [
        {
          "internalType": "address",
          "name": "from",
          "type": "address"
        },
        {
          "internalType": "address",
          "name": "to",
          "type": "address"
        },
        {
          "internalType": "uint256",
          "name": "tokenId",
          "type": "uint256"
        }
      ],
      "name": "transferFrom",
      "outputs": [],
      "stateMutability": "nonpayable",
      "type": "function"
    },
    {
      "inputs": [
        {
          "internalType": "uint256",
          "name": "_listingPrice",
          "type": "uint256"
        }
      ],
      "name": "updateListingPrice",
      "outputs": [],
      "stateMutability": "payable",
      "type": "function"
    }
  ],
  "bytecode": "0x60806040526605543df729c0006009553480156200001c57600080fd5b506040518060400160405280601381526020017f4e4654204d657461766572736520546f6b656e000000000000000000000000008152506040518060400160405280600581526020017f4d594e465400000000000000000000000000000000000000000000000000000081525081600090816200009a919062000355565b508060019081620000ac919062000355565b5050503373ffffffffffffffffffffffffffffffffffffffff16600a60009054906101000a905050506200043c565b600081519050919050565b7f4e487b7100000000000000000000000000000000000000000000000000000000600052604160045260246000fd5b7f4e487b7100000000000000000000000000000000000000000000000000000000600052602260045260246000fd5b600060028204905060018216806200015d57607f821691505b60208210810362000173576200017262000115565b5b50919050565b60008190508160005260206000209050919050565b60006020601f8301049050919050565b600082821b905092915050565b600060088302620001dd7fffffffffffffffffffffffffffffffffffffffffffffffffffffffffffffffff826200019e565b620001e986836200019e565b95508019841693508086168417925050509392505050565b6000819050919050565b6000819050919050565b600062000236620002306200022a8462000201565b6200020b565b62000201565b9050919050565b6000819050919050565b620002528362000215565b6200026a62000261826200023d565b848454620001ab565b825550505050565b600090565b6200028162000272565b6200028e81848462000247565b505050565b5b81811015620002b657620002aa60008262000277565b60018101905062000294565b5050565b601f8211156200030557620002cf8162000179565b620002da846200018e565b81016020851015620002ea578190505b62000302620002f9856200018e565b83018262000293565b50505b505050565b600082821c905092915050565b60006200032a600019846008026200030a565b1980831691505092915050565b600062000345838362000317565b9150826002028217905092915050565b6200036082620000db565b67ffffffffffffffff8111156200037c576200037b620000e6565b5b62000388825462000144565b62000395828285620002ba565b600060209050601f831160018114620003cd5760008415620003b8578287015190505b620003c4858262000337565b86555062000434565b601f198416620003dd8662000179565b60005b828110156200040757848901518255600182019150602085019450602081019050620003e0565b8683101562000427578489015162000423601f89168262000317565b8355505b6001600288020188555050505b505050505050565b614301806200044c6000396000f3fe6080604052600436106101355760003560e01c80638fafd021116100ab578063be9af5361161006f578063be9af5361461041e578063c18763f71461043a578063c78f19f914610465578063c87b56dd14610490578063e985e9c5146104cd578063ff4652551461050a57610135565b80638fafd0211461035a57806395d89b4114610385578063a22cb465146103b0578063ae677aa3146103d9578063b88d4fde146103f557610135565b806323b872dd116100fd57806323b872dd146102335780634167305f1461025c57806342842e0e146102875780636352211e146102b057806370a08231146102ed57806372b3b6201461032a57610135565b806301ffc9a71461013a57806306fdde0314610177578063081812fc146101a2578063095ea7b3146101df57806312e8558514610208575b600080fd5b34801561014657600080fd5b50610161600480360381019061015c9190612bc5565b610526565b60405161016e9190612c0d565b60405180910390f35b34801561018357600080fd5b5061018c610608565b6040516101999190612cb8565b60405180910390f35b3480156101ae57600080fd5b506101c960048036038101906101c49190612d10565b61069a565b6040516101d69190612d7e565b60405180910390f35b3480156101eb57600080fd5b5061020660048036038101906102019190612dc5565b6106e0565b005b34801561021457600080fd5b5061021d6107f7565b60405161022a9190612e14565b60405180910390f35b34801561023f57600080fd5b5061025a60048036038101906102559190612e2f565b610801565b005b34801561026857600080fd5b50610271610861565b60405161027e9190612fd8565b60405180910390f35b34801561029357600080fd5b506102ae60048036038101906102a99190612e2f565b610b4d565b005b3480156102bc57600080fd5b506102d760048036038101906102d29190612d10565b610b6d565b6040516102e49190612d7e565b60405180910390f35b3480156102f957600080fd5b50610314600480360381019061030f9190612ffa565b610bf3565b6040516103219190612e14565b60405180910390f35b610344600480360381019061033f919061315c565b610caa565b6040516103519190612e14565b60405180910390f35b34801561036657600080fd5b5061036f610cec565b60405161037c9190612fd8565b60405180910390f35b34801561039157600080fd5b5061039a610f54565b6040516103a79190612cb8565b60405180910390f35b3480156103bc57600080fd5b506103d760048036038101906103d291906131e4565b610fe6565b005b6103f360048036038101906103ee9190612d10565b610ffc565b005b34801561040157600080fd5b5061041c600480360381019061041791906132c5565b611006565b005b61043860048036038101906104339190612d10565b611068565b005b34801561044657600080fd5b5061044f6112a0565b60405161045c9190612fd8565b60405180910390f35b34801561047157600080fd5b5061047a61158c565b6040516104879190612e14565b60405180910390f35b34801561049c57600080fd5b506104b760048036038101906104b29190612d10565b611592565b6040516104c49190612cb8565b60405180910390f35b3480156104d957600080fd5b506104f460048036038101906104ef9190613348565b6116a4565b6040516105019190612c0d565b60405180910390f35b610524600480360381019061051f9190613388565b611738565b005b60007f80ac58cd000000000000000000000000000000000000000000000000000000007bffffffffffffffffffffffffffffffffffffffffffffffffffffffff1916827bffffffffffffffffffffffffffffffffffffffffffffffffffffffff191614806105f157507f5b5e139f000000000000000000000000000000000000000000000000000000007bffffffffffffffffffffffffffffffffffffffffffffffffffffffff1916827bffffffffffffffffffffffffffffffffffffffffffffffffffffffff1916145b8061060157506106008261192e565b5b9050919050565b606060008054610617906133f7565b80601f0160208091040260200160405190810160405280929190818152602001828054610643906133f7565b80156106905780601f1061066557610100808354040283529160200191610690565b820191906000526020600020905b81548152906001019060200180831161067357829003601f168201915b5050505050905090565b60006106a582611998565b6004600083815260200190815260200160002060009054906101000a900473ffffffffffffffffffffffffffffffffffffffff169050919050565b60006106eb82610b6d565b90508073ffffffffffffffffffffffffffffffffffffffff168373ffffffffffffffffffffffffffffffffffffffff160361075b576040517f08c379a00000000000000000000000000000000000000000000000000000000081526004016107529061349a565b60405180910390fd5b8073ffffffffffffffffffffffffffffffffffffffff1661077a6119e3565b73ffffffffffffffffffffffffffffffffffffffff1614806107a957506107a8816107a36119e3565b6116a4565b5b6107e8576040517f08c379a00000000000000000000000000000000000000000000000000000000081526004016107df9061352c565b60405180910390fd5b6107f283836119eb565b505050565b6000600954905090565b61081261080c6119e3565b82611aa4565b610851576040517f08c379a0000000000000000000000000000000000000000000000000000000008152600401610848906135be565b60405180910390fd5b61085c838383611b39565b505050565b6060600061086f6007611e32565b905060008060005b83811115610917573373ffffffffffffffffffffffffffffffffffffffff16600b60006001846108a7919061360d565b815260200190815260200160002060020160009054906101000a900473ffffffffffffffffffffffffffffffffffffffff1673ffffffffffffffffffffffffffffffffffffffff160361090457600183610901919061360d565b92505b808061090f90613641565b915050610877565b5060008267ffffffffffffffff81111561093457610933613031565b5b60405190808252806020026020018201604052801561096d57816020015b61095a612afc565b8152602001906001900390816109525790505b50905060005b83811015610b42573373ffffffffffffffffffffffffffffffffffffffff16600b60006001846109a3919061360d565b815260200190815260200160002060020160009054906101000a900473ffffffffffffffffffffffffffffffffffffffff1673ffffffffffffffffffffffffffffffffffffffff1603610b2f5760006001826109ff919061360d565b90506000600b60008381526020019081526020016000209050806040518060a0016040529081600082015481526020016001820160009054906101000a900473ffffffffffffffffffffffffffffffffffffffff1673ffffffffffffffffffffffffffffffffffffffff1673ffffffffffffffffffffffffffffffffffffffff1681526020016002820160009054906101000a900473ffffffffffffffffffffffffffffffffffffffff1673ffffffffffffffffffffffffffffffffffffffff1673ffffffffffffffffffffffffffffffffffffffff168152602001600382015481526020016004820160009054906101000a900460ff161515151581525050848681518110610b1257610b11613689565b5b6020026020010181905250600185610b2a919061360d565b945050505b8080610b3a90613641565b915050610973565b508094505050505090565b610b6883838360405180602001604052806000815250611006565b505050565b600080610b7983611e40565b9050600073ffffffffffffffffffffffffffffffffffffffff168173ffffffffffffffffffffffffffffffffffffffff1603610bea576040517f08c379a0000000000000000000000000000000000000000000000000000000008152600401610be190613704565b60405180910390fd5b80915050919050565b60008073ffffffffffffffffffffffffffffffffffffffff168273ffffffffffffffffffffffffffffffffffffffff1603610c63576040517f08c379a0000000000000000000000000000000000000000000000000000000008152600401610c5a90613796565b60405180910390fd5b600360008373ffffffffffffffffffffffffffffffffffffffff1673ffffffffffffffffffffffffffffffffffffffff168152602001908152602001600020549050919050565b6000610cb66007611e7d565b6000610cc26007611e32565b9050610cce3382611e93565b610cd881856120b0565b610ce2818461211d565b8091505092915050565b60606000610cfa6007611e32565b90506000610d086008611e32565b610d126007611e32565b610d1c91906137b6565b90506000808267ffffffffffffffff811115610d3b57610d3a613031565b5b604051908082528060200260200182016040528015610d7457816020015b610d61612afc565b815260200190600190039081610d595790505b50905060005b84811015610f49573073ffffffffffffffffffffffffffffffffffffffff16600b6000600184610daa919061360d565b815260200190815260200160002060010160009054906101000a900473ffffffffffffffffffffffffffffffffffffffff1673ffffffffffffffffffffffffffffffffffffffff1603610f36576000600182610e06919061360d565b90506000600b60008381526020019081526020016000209050806040518060a0016040529081600082015481526020016001820160009054906101000a900473ffffffffffffffffffffffffffffffffffffffff1673ffffffffffffffffffffffffffffffffffffffff1673ffffffffffffffffffffffffffffffffffffffff1681526020016002820160009054906101000a900473ffffffffffffffffffffffffffffffffffffffff1673ffffffffffffffffffffffffffffffffffffffff1673ffffffffffffffffffffffffffffffffffffffff168152602001600382015481526020016004820160009054906101000a900460ff161515151581525050848681518110610f1957610f18613689565b5b6020026020010181905250600185610f31919061360d565b945050505b8080610f4190613641565b915050610d7a565b508094505050505090565b606060018054610f63906133f7565b80601f0160208091040260200160405190810160405280929190818152602001828054610f8f906133f7565b8015610fdc5780601f10610fb157610100808354040283529160200191610fdc565b820191906000526020600020905b815481529060010190602001808311610fbf57829003601f168201915b5050505050905090565b610ff8610ff16119e3565b8383612321565b5050565b8060098190555050565b6110176110116119e3565b83611aa4565b611056576040517f08c379a000000000000000000000000000000000000000000000000000000000815260040161104d906135be565b60405180910390fd5b6110628484848461248d565b50505050565b6000600b60008381526020019081526020016000206003015490508034146110c5576040517f08c379a00000000000000000000000000000000000000000000000000000000081526004016110bc9061385c565b60405180910390fd5b33600b600084815260200190815260200160002060010160006101000a81548173ffffffffffffffffffffffffffffffffffffffff021916908373ffffffffffffffffffffffffffffffffffffffff1602179055506001600b600084815260200190815260200160002060040160006101000a81548160ff0219169083151502179055506000600b600084815260200190815260200160002060010160006101000a81548173ffffffffffffffffffffffffffffffffffffffff021916908373ffffffffffffffffffffffffffffffffffffffff1602179055506111a96008611e7d565b6111b4303384611b39565b600a60009054906101000a900473ffffffffffffffffffffffffffffffffffffffff1673ffffffffffffffffffffffffffffffffffffffff166108fc6009549081150290604051600060405180830381858888f1935050505015801561121e573d6000803e3d6000fd5b50600b600083815260200190815260200160002060020160009054906101000a900473ffffffffffffffffffffffffffffffffffffffff1673ffffffffffffffffffffffffffffffffffffffff166108fc349081150290604051600060405180830381858888f1935050505015801561129b573d6000803e3d6000fd5b505050565b606060006112ae6007611e32565b905060008060005b83811015611356573373ffffffffffffffffffffffffffffffffffffffff16600b60006001846112e6919061360d565b815260200190815260200160002060010160009054906101000a900473ffffffffffffffffffffffffffffffffffffffff1673ffffffffffffffffffffffffffffffffffffffff160361134357600183611340919061360d565b92505b808061134e90613641565b9150506112b6565b5060008267ffffffffffffffff81111561137357611372613031565b5b6040519080825280602002602001820160405280156113ac57816020015b611399612afc565b8152602001906001900390816113915790505b50905060005b83811115611581573373ffffffffffffffffffffffffffffffffffffffff16600b60006001846113e2919061360d565b815260200190815260200160002060010160009054906101000a900473ffffffffffffffffffffffffffffffffffffffff1673ffffffffffffffffffffffffffffffffffffffff160361156e57600060018261143e919061360d565b90506000600b60008381526020019081526020016000209050806040518060a0016040529081600082015481526020016001820160009054906101000a900473ffffffffffffffffffffffffffffffffffffffff1673ffffffffffffffffffffffffffffffffffffffff1673ffffffffffffffffffffffffffffffffffffffff1681526020016002820160009054906101000a900473ffffffffffffffffffffffffffffffffffffffff1673ffffffffffffffffffffffffffffffffffffffff1673ffffffffffffffffffffffffffffffffffffffff168152602001600382015481526020016004820160009054906101000a900460ff16151515158152505084868151811061155157611550613689565b5b6020026020010181905250600185611569919061360d565b945050505b808061157990613641565b9150506113b2565b508094505050505090565b60095481565b606061159d82611998565b60006006600084815260200190815260200160002080546115bd906133f7565b80601f01602080910402602001604051908101604052809291908181526020018280546115e9906133f7565b80156116365780601f1061160b57610100808354040283529160200191611636565b820191906000526020600020905b81548152906001019060200180831161161957829003601f168201915b5050505050905060006116476124e9565b9050600081510361165c57819250505061169f565b6000825111156116915780826040516020016116799291906138b8565b6040516020818303038152906040529250505061169f565b61169a84612500565b925050505b919050565b6000600560008473ffffffffffffffffffffffffffffffffffffffff1673ffffffffffffffffffffffffffffffffffffffff16815260200190815260200160002060008373ffffffffffffffffffffffffffffffffffffffff1673ffffffffffffffffffffffffffffffffffffffff16815260200190815260200160002060009054906101000a900460ff16905092915050565b3373ffffffffffffffffffffffffffffffffffffffff16600b600084815260200190815260200160002060010160009054906101000a900473ffffffffffffffffffffffffffffffffffffffff1673ffffffffffffffffffffffffffffffffffffffff16146117dc576040517f08c379a00000000000000000000000000000000000000000000000000000000081526004016117d39061394e565b60405180910390fd5b600954341015611821576040517f08c379a0000000000000000000000000000000000000000000000000000000008152600401611818906139e0565b60405180910390fd5b6000600b600084815260200190815260200160002060040160006101000a81548160ff02191690831515021790555080600b60008481526020019081526020016000206003018190555033600b600084815260200190815260200160002060020160006101000a81548173ffffffffffffffffffffffffffffffffffffffff021916908373ffffffffffffffffffffffffffffffffffffffff16021790555030600b600084815260200190815260200160002060010160006101000a81548173ffffffffffffffffffffffffffffffffffffffff021916908373ffffffffffffffffffffffffffffffffffffffff16021790555061191f6008612568565b61192a333084611b39565b5050565b60007f01ffc9a7000000000000000000000000000000000000000000000000000000007bffffffffffffffffffffffffffffffffffffffffffffffffffffffff1916827bffffffffffffffffffffffffffffffffffffffffffffffffffffffff1916149050919050565b6119a1816125c4565b6119e0576040517f08c379a00000000000000000000000000000000000000000000000000000000081526004016119d790613704565b60405180910390fd5b50565b600033905090565b816004600083815260200190815260200160002060006101000a81548173ffffffffffffffffffffffffffffffffffffffff021916908373ffffffffffffffffffffffffffffffffffffffff160217905550808273ffffffffffffffffffffffffffffffffffffffff16611a5e83610b6d565b73ffffffffffffffffffffffffffffffffffffffff167f8c5be1e5ebec7d5bd14f71427d1e84f3dd0314c0f7b2291e5b200ac8c7c3b92560405160405180910390a45050565b600080611ab083610b6d565b90508073ffffffffffffffffffffffffffffffffffffffff168473ffffffffffffffffffffffffffffffffffffffff161480611af25750611af181856116a4565b5b80611b3057508373ffffffffffffffffffffffffffffffffffffffff16611b188461069a565b73ffffffffffffffffffffffffffffffffffffffff16145b91505092915050565b8273ffffffffffffffffffffffffffffffffffffffff16611b5982610b6d565b73ffffffffffffffffffffffffffffffffffffffff1614611baf576040517f08c379a0000000000000000000000000000000000000000000000000000000008152600401611ba690613a72565b60405180910390fd5b600073ffffffffffffffffffffffffffffffffffffffff168273ffffffffffffffffffffffffffffffffffffffff1603611c1e576040517f08c379a0000000000000000000000000000000000000000000000000000000008152600401611c1590613b04565b60405180910390fd5b611c2b8383836001612605565b8273ffffffffffffffffffffffffffffffffffffffff16611c4b82610b6d565b73ffffffffffffffffffffffffffffffffffffffff1614611ca1576040517f08c379a0000000000000000000000000000000000000000000000000000000008152600401611c9890613a72565b60405180910390fd5b6004600082815260200190815260200160002060006101000a81549073ffffffffffffffffffffffffffffffffffffffff02191690556001600360008573ffffffffffffffffffffffffffffffffffffffff1673ffffffffffffffffffffffffffffffffffffffff168152602001908152602001600020600082825403925050819055506001600360008473ffffffffffffffffffffffffffffffffffffffff1673ffffffffffffffffffffffffffffffffffffffff16815260200190815260200160002060008282540192505081905550816002600083815260200190815260200160002060006101000a81548173ffffffffffffffffffffffffffffffffffffffff021916908373ffffffffffffffffffffffffffffffffffffffff160217905550808273ffffffffffffffffffffffffffffffffffffffff168473ffffffffffffffffffffffffffffffffffffffff167fddf252ad1be2c89b69c2b068fc378daa952ba7f163c4a11628f55a4df523b3ef60405160405180910390a4611e2d838383600161272b565b505050565b600081600001549050919050565b60006002600083815260200190815260200160002060009054906101000a900473ffffffffffffffffffffffffffffffffffffffff169050919050565b6001816000016000828254019250508190555050565b600073ffffffffffffffffffffffffffffffffffffffff168273ffffffffffffffffffffffffffffffffffffffff1603611f02576040517f08c379a0000000000000000000000000000000000000000000000000000000008152600401611ef990613b70565b60405180910390fd5b611f0b816125c4565b15611f4b576040517f08c379a0000000000000000000000000000000000000000000000000000000008152600401611f4290613bdc565b60405180910390fd5b611f59600083836001612605565b611f62816125c4565b15611fa2576040517f08c379a0000000000000000000000000000000000000000000000000000000008152600401611f9990613bdc565b60405180910390fd5b6001600360008473ffffffffffffffffffffffffffffffffffffffff1673ffffffffffffffffffffffffffffffffffffffff16815260200190815260200160002060008282540192505081905550816002600083815260200190815260200160002060006101000a81548173ffffffffffffffffffffffffffffffffffffffff021916908373ffffffffffffffffffffffffffffffffffffffff160217905550808273ffffffffffffffffffffffffffffffffffffffff16600073ffffffffffffffffffffffffffffffffffffffff167fddf252ad1be2c89b69c2b068fc378daa952ba7f163c4a11628f55a4df523b3ef60405160405180910390a46120ac60008383600161272b565b5050565b6120b9826125c4565b6120f8576040517f08c379a00000000000000000000000000000000000000000000000000000000081526004016120ef90613c6e565b60405180910390fd5b806006600084815260200190815260200160002090816121189190613e3a565b505050565b60008111612160576040517f08c379a000000000000000000000000000000000000000000000000000000000815260040161215790613f58565b60405180910390fd5b6009543410156121a5576040517f08c379a000000000000000000000000000000000000000000000000000000000815260040161219c90613fea565b60405180910390fd5b6040518060a001604052808381526020013373ffffffffffffffffffffffffffffffffffffffff1681526020013073ffffffffffffffffffffffffffffffffffffffff16815260200182815260200160001515815250600b60008481526020019081526020016000206000820151816000015560208201518160010160006101000a81548173ffffffffffffffffffffffffffffffffffffffff021916908373ffffffffffffffffffffffffffffffffffffffff16021790555060408201518160020160006101000a81548173ffffffffffffffffffffffffffffffffffffffff021916908373ffffffffffffffffffffffffffffffffffffffff1602179055506060820151816003015560808201518160040160006101000a81548160ff0219169083151502179055509050506122de333084611b39565b817fdebdb32cb5230ab727c9c361b16fdb2015df225c10e6a3e7f60ecd5dc5be45163330846000604051612315949392919061400a565b60405180910390a25050565b8173ffffffffffffffffffffffffffffffffffffffff168373ffffffffffffffffffffffffffffffffffffffff160361238f576040517f08c379a00000000000000000000000000000000000000000000000000000000081526004016123869061409b565b60405180910390fd5b80600560008573ffffffffffffffffffffffffffffffffffffffff1673ffffffffffffffffffffffffffffffffffffffff16815260200190815260200160002060008473ffffffffffffffffffffffffffffffffffffffff1673ffffffffffffffffffffffffffffffffffffffff16815260200190815260200160002060006101000a81548160ff0219169083151502179055508173ffffffffffffffffffffffffffffffffffffffff168373ffffffffffffffffffffffffffffffffffffffff167f17307eab39ab6107e8899845ad3d59bd9653f200f220920489ca2b5937696c31836040516124809190612c0d565b60405180910390a3505050565b612498848484611b39565b6124a484848484612731565b6124e3576040517f08c379a00000000000000000000000000000000000000000000000000000000081526004016124da9061412d565b60405180910390fd5b50505050565b606060405180602001604052806000815250905090565b606061250b82611998565b60006125156124e9565b905060008151116125355760405180602001604052806000815250612560565b8061253f846128b8565b6040516020016125509291906138b8565b6040516020818303038152906040525b915050919050565b600081600001549050600081116125b4576040517f08c379a00000000000000000000000000000000000000000000000000000000081526004016125ab90614199565b60405180910390fd5b6001810382600001819055505050565b60008073ffffffffffffffffffffffffffffffffffffffff166125e683611e40565b73ffffffffffffffffffffffffffffffffffffffff1614159050919050565b600181111561272557600073ffffffffffffffffffffffffffffffffffffffff168473ffffffffffffffffffffffffffffffffffffffff16146126995780600360008673ffffffffffffffffffffffffffffffffffffffff1673ffffffffffffffffffffffffffffffffffffffff168152602001908152602001600020600082825461269191906137b6565b925050819055505b600073ffffffffffffffffffffffffffffffffffffffff168373ffffffffffffffffffffffffffffffffffffffff16146127245780600360008573ffffffffffffffffffffffffffffffffffffffff1673ffffffffffffffffffffffffffffffffffffffff168152602001908152602001600020600082825461271c919061360d565b925050819055505b5b50505050565b50505050565b60006127528473ffffffffffffffffffffffffffffffffffffffff16612986565b156128ab578373ffffffffffffffffffffffffffffffffffffffff1663150b7a0261277b6119e3565b8786866040518563ffffffff1660e01b815260040161279d949392919061420e565b6020604051808303816000875af19250505080156127d957506040513d601f19601f820116820180604052508101906127d6919061426f565b60015b61285b573d8060008114612809576040519150601f19603f3d011682016040523d82523d6000602084013e61280e565b606091505b506000815103612853576040517f08c379a000000000000000000000000000000000000000000000000000000000815260040161284a9061412d565b60405180910390fd5b805181602001fd5b63150b7a0260e01b7bffffffffffffffffffffffffffffffffffffffffffffffffffffffff1916817bffffffffffffffffffffffffffffffffffffffffffffffffffffffff1916149150506128b0565b600190505b949350505050565b6060600060016128c7846129a9565b01905060008167ffffffffffffffff8111156128e6576128e5613031565b5b6040519080825280601f01601f1916602001820160405280156129185781602001600182028036833780820191505090505b509050600082602001820190505b60011561297b578080600190039150507f3031323334353637383961626364656600000000000000000000000000000000600a86061a8153600a858161296f5761296e61429c565b5b04945060008503612926575b819350505050919050565b6000808273ffffffffffffffffffffffffffffffffffffffff163b119050919050565b600080600090507a184f03e93ff9f4daa797ed6e38ed64bf6a1f0100000000000000008310612a07577a184f03e93ff9f4daa797ed6e38ed64bf6a1f01000000000000000083816129fd576129fc61429c565b5b0492506040810190505b6d04ee2d6d415b85acef81000000008310612a44576d04ee2d6d415b85acef81000000008381612a3a57612a3961429c565b5b0492506020810190505b662386f26fc100008310612a7357662386f26fc100008381612a6957612a6861429c565b5b0492506010810190505b6305f5e1008310612a9c576305f5e1008381612a9257612a9161429c565b5b0492506008810190505b6127108310612ac1576127108381612ab757612ab661429c565b5b0492506004810190505b60648310612ae45760648381612ada57612ad961429c565b5b0492506002810190505b600a8310612af3576001810190505b80915050919050565b6040518060a0016040528060008152602001600073ffffffffffffffffffffffffffffffffffffffff168152602001600073ffffffffffffffffffffffffffffffffffffffff168152602001600081526020016000151581525090565b6000604051905090565b600080fd5b600080fd5b60007fffffffff0000000000000000000000000000000000000000000000000000000082169050919050565b612ba281612b6d565b8114612bad57600080fd5b50565b600081359050612bbf81612b99565b92915050565b600060208284031215612bdb57612bda612b63565b5b6000612be984828501612bb0565b91505092915050565b60008115159050919050565b612c0781612bf2565b82525050565b6000602082019050612c226000830184612bfe565b92915050565b600081519050919050565b600082825260208201905092915050565b60005b83811015612c62578082015181840152602081019050612c47565b60008484015250505050565b6000601f19601f8301169050919050565b6000612c8a82612c28565b612c948185612c33565b9350612ca4818560208601612c44565b612cad81612c6e565b840191505092915050565b60006020820190508181036000830152612cd28184612c7f565b905092915050565b6000819050919050565b612ced81612cda565b8114612cf857600080fd5b50565b600081359050612d0a81612ce4565b92915050565b600060208284031215612d2657612d25612b63565b5b6000612d3484828501612cfb565b91505092915050565b600073ffffffffffffffffffffffffffffffffffffffff82169050919050565b6000612d6882612d3d565b9050919050565b612d7881612d5d565b82525050565b6000602082019050612d936000830184612d6f565b92915050565b612da281612d5d565b8114612dad57600080fd5b50565b600081359050612dbf81612d99565b92915050565b60008060408385031215612ddc57612ddb612b63565b5b6000612dea85828601612db0565b9250506020612dfb85828601612cfb565b9150509250929050565b612e0e81612cda565b82525050565b6000602082019050612e296000830184612e05565b92915050565b600080600060608486031215612e4857612e47612b63565b5b6000612e5686828701612db0565b9350506020612e6786828701612db0565b9250506040612e7886828701612cfb565b9150509250925092565b600081519050919050565b600082825260208201905092915050565b6000819050602082019050919050565b612eb781612cda565b82525050565b6000612ec882612d3d565b9050919050565b612ed881612ebd565b82525050565b612ee781612bf2565b82525050565b60a082016000820151612f036000850182612eae565b506020820151612f166020850182612ecf565b506040820151612f296040850182612ecf565b506060820151612f3c6060850182612eae565b506080820151612f4f6080850182612ede565b50505050565b6000612f618383612eed565b60a08301905092915050565b6000602082019050919050565b6000612f8582612e82565b612f8f8185612e8d565b9350612f9a83612e9e565b8060005b83811015612fcb578151612fb28882612f55565b9750612fbd83612f6d565b925050600181019050612f9e565b5085935050505092915050565b60006020820190508181036000830152612ff28184612f7a565b905092915050565b6000602082840312156130105761300f612b63565b5b600061301e84828501612db0565b91505092915050565b600080fd5b600080fd5b7f4e487b7100000000000000000000000000000000000000000000000000000000600052604160045260246000fd5b61306982612c6e565b810181811067ffffffffffffffff8211171561308857613087613031565b5b80604052505050565b600061309b612b59565b90506130a78282613060565b919050565b600067ffffffffffffffff8211156130c7576130c6613031565b5b6130d082612c6e565b9050602081019050919050565b82818337600083830152505050565b60006130ff6130fa846130ac565b613091565b90508281526020810184848401111561311b5761311a61302c565b5b6131268482856130dd565b509392505050565b600082601f83011261314357613142613027565b5b81356131538482602086016130ec565b91505092915050565b6000806040838503121561317357613172612b63565b5b600083013567ffffffffffffffff81111561319157613190612b68565b5b61319d8582860161312e565b92505060206131ae85828601612cfb565b9150509250929050565b6131c181612bf2565b81146131cc57600080fd5b50565b6000813590506131de816131b8565b92915050565b600080604083850312156131fb576131fa612b63565b5b600061320985828601612db0565b925050602061321a858286016131cf565b9150509250929050565b600067ffffffffffffffff82111561323f5761323e613031565b5b61324882612c6e565b9050602081019050919050565b600061326861326384613224565b613091565b9050828152602081018484840111156132845761328361302c565b5b61328f8482856130dd565b509392505050565b600082601f8301126132ac576132ab613027565b5b81356132bc848260208601613255565b91505092915050565b600080600080608085870312156132df576132de612b63565b5b60006132ed87828801612db0565b94505060206132fe87828801612db0565b935050604061330f87828801612cfb565b925050606085013567ffffffffffffffff8111156133305761332f612b68565b5b61333c87828801613297565b91505092959194509250565b6000806040838503121561335f5761335e612b63565b5b600061336d85828601612db0565b925050602061337e85828601612db0565b9150509250929050565b6000806040838503121561339f5761339e612b63565b5b60006133ad85828601612cfb565b92505060206133be85828601612cfb565b9150509250929050565b7f4e487b7100000000000000000000000000000000000000000000000000000000600052602260045260246000fd5b6000600282049050600182168061340f57607f821691505b602082108103613422576134216133c8565b5b50919050565b7f4552433732313a20617070726f76616c20746f2063757272656e74206f776e6560008201527f7200000000000000000000000000000000000000000000000000000000000000602082015250565b6000613484602183612c33565b915061348f82613428565b604082019050919050565b600060208201905081810360008301526134b381613477565b9050919050565b7f4552433732313a20617070726f76652063616c6c6572206973206e6f7420746f60008201527f6b656e206f776e6572206f7220617070726f76656420666f7220616c6c000000602082015250565b6000613516603d83612c33565b9150613521826134ba565b604082019050919050565b6000602082019050818103600083015261354581613509565b9050919050565b7f4552433732313a2063616c6c6572206973206e6f7420746f6b656e206f776e6560008201527f72206f7220617070726f76656400000000000000000000000000000000000000602082015250565b60006135a8602d83612c33565b91506135b38261354c565b604082019050919050565b600060208201905081810360008301526135d78161359b565b9050919050565b7f4e487b7100000000000000000000000000000000000000000000000000000000600052601160045260246000fd5b600061361882612cda565b915061362383612cda565b925082820190508082111561363b5761363a6135de565b5b92915050565b600061364c82612cda565b91507fffffffffffffffffffffffffffffffffffffffffffffffffffffffffffffffff820361367e5761367d6135de565b5b600182019050919050565b7f4e487b7100000000000000000000000000000000000000000000000000000000600052603260045260246000fd5b7f4552433732313a20696e76616c696420746f6b656e2049440000000000000000600082015250565b60006136ee601883612c33565b91506136f9826136b8565b602082019050919050565b6000602082019050818103600083015261371d816136e1565b9050919050565b7f4552433732313a2061646472657373207a65726f206973206e6f74206120766160008201527f6c6964206f776e65720000000000000000000000000000000000000000000000602082015250565b6000613780602983612c33565b915061378b82613724565b604082019050919050565b600060208201905081810360008301526137af81613773565b9050919050565b60006137c182612cda565b91506137cc83612cda565b92508282039050818111156137e4576137e36135de565b5b92915050565b7f796f75722062616c616e6365206973206c6f776572207468617420746865206160008201527f736b696e67207072696365000000000000000000000000000000000000000000602082015250565b6000613846602b83612c33565b9150613851826137ea565b604082019050919050565b6000602082019050818103600083015261387581613839565b9050919050565b600081905092915050565b600061389282612c28565b61389c818561387c565b93506138ac818560208601612c44565b80840191505092915050565b60006138c48285613887565b91506138d08284613887565b91508190509392505050565b7f4f6e6c79204974656d206f776e65722063616e20706572666f726d207468697360008201527f206f7065726174696f6e00000000000000000000000000000000000000000000602082015250565b6000613938602a83612c33565b9150613943826138dc565b604082019050919050565b600060208201905081810360008301526139678161392b565b9050919050565b7f696e73756666696369656e742066756e647320666f72207472616e736163746960008201527f6f6e000000000000000000000000000000000000000000000000000000000000602082015250565b60006139ca602283612c33565b91506139d58261396e565b604082019050919050565b600060208201905081810360008301526139f9816139bd565b9050919050565b7f4552433732313a207472616e736665722066726f6d20696e636f72726563742060008201527f6f776e6572000000000000000000000000000000000000000000000000000000602082015250565b6000613a5c602583612c33565b9150613a6782613a00565b604082019050919050565b60006020820190508181036000830152613a8b81613a4f565b9050919050565b7f4552433732313a207472616e7366657220746f20746865207a65726f2061646460008201527f7265737300000000000000000000000000000000000000000000000000000000602082015250565b6000613aee602483612c33565b9150613af982613a92565b604082019050919050565b60006020820190508181036000830152613b1d81613ae1565b9050919050565b7f4552433732313a206d696e7420746f20746865207a65726f2061646472657373600082015250565b6000613b5a602083612c33565b9150613b6582613b24565b602082019050919050565b60006020820190508181036000830152613b8981613b4d565b9050919050565b7f4552433732313a20746f6b656e20616c7265616479206d696e74656400000000600082015250565b6000613bc6601c83612c33565b9150613bd182613b90565b602082019050919050565b60006020820190508181036000830152613bf581613bb9565b9050919050565b7f45524337323155524953746f726167653a2055524920736574206f66206e6f6e60008201527f6578697374656e7420746f6b656e000000000000000000000000000000000000602082015250565b6000613c58602e83612c33565b9150613c6382613bfc565b604082019050919050565b60006020820190508181036000830152613c8781613c4b565b9050919050565b60008190508160005260206000209050919050565b60006020601f8301049050919050565b600082821b905092915050565b600060088302613cf07fffffffffffffffffffffffffffffffffffffffffffffffffffffffffffffffff82613cb3565b613cfa8683613cb3565b95508019841693508086168417925050509392505050565b6000819050919050565b6000613d37613d32613d2d84612cda565b613d12565b612cda565b9050919050565b6000819050919050565b613d5183613d1c565b613d65613d5d82613d3e565b848454613cc0565b825550505050565b600090565b613d7a613d6d565b613d85818484613d48565b505050565b5b81811015613da957613d9e600082613d72565b600181019050613d8b565b5050565b601f821115613dee57613dbf81613c8e565b613dc884613ca3565b81016020851015613dd7578190505b613deb613de385613ca3565b830182613d8a565b50505b505050565b600082821c905092915050565b6000613e1160001984600802613df3565b1980831691505092915050565b6000613e2a8383613e00565b9150826002028217905092915050565b613e4382612c28565b67ffffffffffffffff811115613e5c57613e5b613031565b5b613e6682546133f7565b613e71828285613dad565b600060209050601f831160018114613ea45760008415613e92578287015190505b613e9c8582613e1e565b865550613f04565b601f198416613eb286613c8e565b60005b82811015613eda57848901518255600182019150602085019450602081019050613eb5565b86831015613ef75784890151613ef3601f891682613e00565b8355505b6001600288020188555050505b505050505050565b7f50726963652063616e6e6f742062652030000000000000000000000000000000600082015250565b6000613f42601183612c33565b9150613f4d82613f0c565b602082019050919050565b60006020820190508181036000830152613f7181613f35565b9050919050565b7f696e73756666696369656e74732066756e647320666f72207472616e7361637460008201527f696f6e0000000000000000000000000000000000000000000000000000000000602082015250565b6000613fd4602383612c33565b9150613fdf82613f78565b604082019050919050565b6000602082019050818103600083015261400381613fc7565b9050919050565b600060808201905061401f6000830187612d6f565b61402c6020830186612d6f565b6140396040830185612e05565b6140466060830184612bfe565b95945050505050565b7f4552433732313a20617070726f766520746f2063616c6c657200000000000000600082015250565b6000614085601983612c33565b91506140908261404f565b602082019050919050565b600060208201905081810360008301526140b481614078565b9050919050565b7f4552433732313a207472616e7366657220746f206e6f6e20455243373231526560008201527f63656976657220696d706c656d656e7465720000000000000000000000000000602082015250565b6000614117603283612c33565b9150614122826140bb565b604082019050919050565b600060208201905081810360008301526141468161410a565b9050919050565b7f436f756e7465723a2064656372656d656e74206f766572666c6f770000000000600082015250565b6000614183601b83612c33565b915061418e8261414d565b602082019050919050565b600060208201905081810360008301526141b281614176565b9050919050565b600081519050919050565b600082825260208201905092915050565b60006141e0826141b9565b6141ea81856141c4565b93506141fa818560208601612c44565b61420381612c6e565b840191505092915050565b60006080820190506142236000830187612d6f565b6142306020830186612d6f565b61423d6040830185612e05565b818103606083015261424f81846141d5565b905095945050505050565b60008151905061426981612b99565b92915050565b60006020828403121561428557614284612b63565b5b60006142938482850161425a565b91505092915050565b7f4e487b7100000000000000000000000000000000000000000000000000000000600052601260045260246000fdfea264697066735822122070a8012b1e52e1ca50a848ef324bd413bf2942adac94c229618ac8edbb1df0af64736f6c63430008110033",
  "linkReferences": {},
  "deployedLinkReferences": {}
}